:020000040800F2
:1000000088060020890100084907000871060008D9
:10001000B5060008290300083F1200080000000090
:10002000000000000000000000000000F90B0008C4
:100030000105000800000000E10A0008290D000881
:10004000A3010008A3010008A3010008A301000800
:10005000A3010008A3010008A3010008A3010008F0
:10006000A3010008A3010008A3010008A3010008E0
:10007000A3010008A3010008A3010008A3010008D0
:10008000A3010008A3010008A3010008A3010008C0
:10009000A3010008A3010008A3010008A3010008B0
:1000A000A3010008A3010008A3010008A3010008A0
:1000B000A3010008A30100088D0D0008A30100089A
:1000C000A3010008A3010008A3010008A301000880
:1000D000A3010008A30100088D100008A301000877
:1000E000A3010008A3010008A301000800F002F822
:1000F00000F03AF80AA090E8000C82448344AAF188
:100100000107DA4501D100F02FF8AFF2090EBAE885
:100110000F0013F0010F18BFFB1A43F0010318473B
:100120002C1C00004C1C0000103A24BF78C878C179
:10013000FAD8520724BF30C830C144BF04680C60ED
:10014000704700000023002400250026103A28BF35
:1001500078C1FBD8520728BF30C148BF0B60704739
:100160001FB51FBD10B510BD00F031F81146FFF7E7
:10017000F7FF01F066F800F04FF803B4FFF7F2FF65
:1001800003BC00F053F800000948804709480047C5
:10019000FEE7FEE7FEE7FEE7FEE7FEE7FEE7FEE737
:1001A000FEE7FEE704480549054A064B7047000094
:1001B0002D0D0008ED0000088800002088060020B2
:1001C00088020020880200207047704770477546FB
:1001D00000F028F8AE4605006946534620F00700B7
:1001E000854618B020B5FFF7DDFFBDE820404FF091
:1001F00000064FF000074FF000084FF0000B21F011
:100200000701AC46ACE8C009ACE8C009ACE8C009DD
:10021000ACE8C0098D4670470446AFF30080204625
:10022000FFF7ABFF00487047240000200149182069
:10023000ABBEFEE7260002007047000010B550205C
:1002400009490870084690F9000000F04DFA064888
:1002500090F9000000F060FA04480549086008467B
:10026000006800F0CFFC10BD180000200000B44270
:100270001C00002000B587B00121042000F042FCE2
:100280000121480400F02EFC18208DF81B000420EA
:10029000ADF8180003208DF81A0006A9204800F0D8
:1002A00053F90820ADF8180004208DF81B00032036
:1002B0008DF81A0006A91A4800F046F94FF41650B6
:1002C00002900020ADF814000C20ADF812000020C0
:1002D000ADF81000ADF80E00ADF80C0002A9114801
:1002E00000F03CFF012240F225510E4800F010FFC3
:1002F0004FF4A06000F062FA26208DF8040001207F
:100300008DF8070003208DF805008DF8060001A880
:1003100000F01CFA0121034800F0E1FE07B000BD27
:10032000000801400044004000BFFEE710B5002473
:1003300022E04FF48071284800F091F9012000F08C
:10034000ECF84FF48071244800F08BF9012000F0A4
:10035000E4F84FF48071204800F081F9012000F0AA
:10036000DCF84FF480711C4800F07BF94FF4FA7010
:1003700000F0D3F8601C84B2B4F5FA7FD9DB6420B6
:1003800000F0BFF8002422E04FF48071124800F022
:1003900066F9012000F0C1F84FF480710E4800F0BA
:1003A00060F9012000F0B9F84FF480710A4800F0BC
:1003B00056F9012000F0B1F84FF48071064800F0C2
:1003C00050F94FF4FA7000F0A8F8601C84B2B4F54C
:1003D000FA7FD9DB10BD00000008014008B50121FB
:1003E000042000F08FFB10208DF803000001ADF811
:1003F000000003208DF802006946024800F0A4F8CE
:1004000008BD00000008014000B589B001210320AB
:1004100000F068FB01210C2000F074FB18208DF81F
:1004200023000220ADF8200003208DF8220008A947
:10043000304800F089F818208DF823000320ADF82B
:1004400020008DF8220008A92B4800F07DF84FF01D
:10045000804000F0D1FC294800F0CEFC0020ADF82F
:100460001A00ADF816006320ADF818002320ADF88F
:10047000140000208DF81C0005A9204800F0B4FDF0
:100480000020ADF81A00ADF8160044F61F60ADF874
:1004900018004720ADF8140000208DF81C0005A9B5
:1004A0004FF0804000F0A0FD01A800F08BFD60201F
:1004B000ADF804000020ADF80C000120ADF80600F6
:1004C0000020ADF80A0001A90C4800F03DFD01A98B
:1004D0000A4800F0E9FC01A94FF0804000F092FCCE
:1004E0000121880700F06BFC0121044800F067FC43
:1004F00009B000BD00080140000C014000040040AC
:10050000704700B5034603E04FF47A7000F005F839
:100510001800A3F10103F7D100BD00EBC001C90031
:100520004FF0E0225161002191610521116100BF6E
:100530004FF0E021096901F480310029F8D004214D
:100540004FF0E022116170472DE9F041024600258D
:100550000026002000230024002791F803C00CF09F
:100560000F0591F803C00CF0100CBCF1000F03D084
:1005700091F802C04CEA050591F800C0BCF1000FEB
:1005800031D0146800202BE04FF0010C0CFA00F37E
:10059000B1F800C00CEA03069E4220D183004FF060
:1005A0000F0C0CFA03F7BC4305FA03FC4CEA0404F5
:1005B00091F803C0BCF1280F06D14FF0010C0CFAE2
:1005C00000FCC2F814C00AE091F803C0BCF1480F67
:1005D00005D14FF0010C0CFA00FCC2F810C0401C11
:1005E0000828D1D31460B1F800C0BCF1FF0F34DD8E
:1005F000546800202EE000F1080C4FF0010808FAC2
:100600000CF3B1F800C00CEA03069E4221D183002E
:100610004FF00F0C0CFA03F7BC4305FA03FC4CEA4D
:10062000040491F803C0BCF1280F05D100F1080CB7
:1006300008FA0CF8C2F8148091F803C0BCF1480F16
:1006400007D100F1080C4FF0010808FA0CF8C2F8C5
:100650001080401C0828CED35460BDE8F081416171
:100660007047016170470AB1016100E04161704764
:1006700000BFFEE710B500F041F900F0BEFA00F04F
:100680001BF8FFF7ABFEFFF751FEFFF7F3FD05A2E6
:100690000121084600F0D4F904A20121022000F053
:1006A000CFF910BD53746174653A000056656C3A19
:1006B0000000000000BFFEE708B50121042000F0A3
:1006C00021FA10208DF803003020ADF8000003203F
:1006D0008DF8020069460348FFF736FFFFF794FEE6
:1006E00008BD00000008014010B50446002C07DBDF
:1006F00010210848FFF7B3FFA0B200F0E7F907E0C8
:1007000010210448FFF7ADFF614288B200F0DEF926
:1007100010BD00000008014010B50446002C07DBA6
:1007200020210848FFF79BFFA0B200F0C5F907E0C1
:1007300020210448FFF795FF614288B200F0BCF920
:1007400010BD0000000801407047000070B5002196
:1007500000230F22C47804B3154C246804F4E06429
:10076000C4F5E064210AC1F10403CA40447804FAE4
:1007700003F184781440214309010E4C0678A155F9
:10078000047804F01F050124AC4005786D11AD001C
:1007900005F1E025C5F8004109E0047804F01F05E3
:1007A0000124AC40044D0678761145F8264070BD12
:1007B0000CED00E000E400E080E100E002490143CC
:1007C000024A1160704700000000FA050CED00E0DD
:1007D00070B500240EE00021204600F0E6F8002568
:1007E00004E0002000F050F9681CC5B2802DF8DB51
:1007F000601CC4B2082CEEDB70BD000008B50121FE
:10080000082000F07FF914208DF8030003208DF8F4
:1008100002004FF48070ADF8000069460A48FFF707
:1008200093FE4FF40070ADF8000069460648FFF7EC
:100830008BFE012211020448FFF715FF012251022D
:100840000148FFF710FF08BD000C014070B50546D8
:10085000002415E08020204100EA05024FF40071D9
:100860000E48FFF700FF012211020C48FFF7FBFEC4
:1008700000224FF480710948FFF7F5FE601CC4B2F6
:10088000082CE7DB012211020448FFF7ECFE0022EE
:100890004FF480710148FFF7E6FE70BD000C014087
:1008A00010B5012251020A48FFF7DDFE01221102B4
:1008B0000748FFF7D8FE00224FF400710448FFF705
:1008C000D2FE00224FF480710148FFF7CCFE10BD2C
:1008D000000C014010B500224FF400710648FFF7EC
:1008E000C2FE012211020448FFF7BDFE012251029F
:1008F0000148FFF7B8FE10BD000C014070B50024A0
:1009000006E0002500E06D1CB5F57A7FFBD3641C82
:10091000B4F57A7FF5D3FFF771FFAE2000F0A4F8AD
:10092000D52000F0A1F8802000F09EF8A82000F06B
:100930009BF83F2000F098F8D32000F095F80020B5
:1009400000F092F8402000F08FF8A12000F08CF821
:10095000C82000F089F8DA2000F086F8122000F0B4
:1009600083F8812000F080F8CF2000F07DF8D920B6
:1009700000F07AF8F12000F077F8DB2000F074F84E
:10098000302000F071F8A42000F06EF8A62000F0EE
:100990006BF88D2000F068F8142000F065F8AF20A7
:1009A00000F062F8FFF714FF70BD70B505460C4605
:1009B00045F0B00000F058F8102141EA141000F0A2
:1009C00053F804F00F0000F04FF870BD2DE9F0412E
:1009D00005460E461746721ED206110E6A1E5206B4
:1009E000100EFFF7E2FF002409E0A7F12001134AEF
:1009F00002EB0111085D00F047F8601CC4B2082C3E
:100A0000F3DB721ED206110E6A1E012303EB4202B3
:100A1000D0B2FFF7CAFF00240BE0A7F12001074A7C
:100A200002EB011204F10801505C00F02DF8601C8B
:100A3000C4B2082CF1DBBDE8F08100005A170008B1
:100A40002DE9F04107460E461546002407E02A5DD1
:100A50003019C1B23846FFF7B9FF601CC4B2285D37
:100A60000028F4D1BDE8F08110B50446FFF718FF67
:100A70007820FFF7EBFE0020FFF7E8FE2046FFF7A7
:100A8000E5FEFFF727FF10BD10B50446FFF708FF8E
:100A90007820FFF7DBFE4020FFF7D8FE2046FFF767
:100AA000D5FEFFF717FF10BD10B5044621464FF0E5
:100AB000804000F091FA10BD10B50446214602486E
:100AC00000F08CFA10BD00000004004010B5044690
:100AD0002146024800F084FA10BD000000040040E6
:100AE0007047000029B1064AD2690243044BDA611B
:100AF00004E0034AD2698243014BDA617047000087
:100B00000010024029B1064A92690243044B9A61DF
:100B100004E0034A92698243014B9A6170470000E6
:100B20000010024030B500210022002400232D4D8A
:100B30006D6805F00C0121B1042905D0082923D1E5
:100B400005E0294D056022E0274D05601FE0254D99
:100B50006D6805F47012234D6D6805F4803402252C
:100B600005EB92421CB9214D554305600BE01D4D2C
:100B70006D6805F400351DB11C4D5543056002E05C
:100B8000194D5543056002E0174D056000BF00BFD9
:100B9000144D6D6805F0F0010909154D6B5C056891
:100BA000DD4045600F4D6D6805F4E061090A104DA8
:100BB0006B5C4568DD4085600A4D6D6805F46051E9
:100BC000C90A0B4D6B5C4568DD40C560054D6D681D
:100BD00005F44041890B074D6B5CC568B5FBF3F527
:100BE000056130BD0010024000127A0000093D008E
:100BF0000000002010000020704710B5FFF704FC33
:100C000010BD00002DE9F04104460A49204600F0DD
:100C100081FB8046084900F05FFC0746074900F069
:100C200017FB064600F038FC85B22846FFF73CFF6C
:100C3000BDE8F081000034430000FA440000FA43AC
:100C400010B500F001F810BD0CB500200190009027
:100C50003348006840F480303149086000BF3048B4
:100C6000006800F4003000900198401C019000984A
:100C700018B90198B0F5A06FF1D12948006800F4C7
:100C8000003010B10120009001E000200090009899
:100C9000012843D12348006840F010002149086032
:100CA0000846006820F0030008600846006840F02D
:100CB000020008601A4840681949486008464068C0
:100CC00048600846406840F48060486008464068D4
:100CD00020F47C1048600846406840F4E810486002
:100CE0000846006840F08070086000BF0C4800684B
:100CF00000F000700028F9D00948406820F0030097
:100D0000074948600846406840F00200486000BF5C
:100D10000348406800F00C000828F9D10CBD000021
:100D200000100240002002407047000010B5134838
:100D3000006840F001001149086008464068104909
:100D400008400E494860084600680E4908400B49B3
:100D500008600846006820F4802008600846406863
:100D600020F4FE0048604FF41F008860FFF768FF22
:100D70004FF000600449086010BD00000010024000
:100D80000000FFF8FFFFF6FE08ED00E010B50121BE
:100D9000074800F020F8012809D106480078401CD7
:100DA00040B2044908700121014800F005F810BD67
:100DB0000008004014000020CA430282704721B19D
:100DC000028842F00102028004E002884FF6FE73BE
:100DD0001A400280704730B50246002000230024EC
:100DE000158A05EA0103958905EA010413B10CB1DE
:100DF000012000E0002030BD01894FF6F87211405B
:100E00000181704770B5002400220023058C4FF645
:100E1000EF7635400584028C8388048B48F6FF7595
:100E20002C404FF6FF452C400D884FF6FF7606EA22
:100E300005252C434FF6DF752A400D8906EA051576
:100E40002A434D8806EA05152A43154DA84202D0CB
:100E5000144DA8421DD14FF67F752A404D894FF69B
:100E6000FF7606EA05152A434FF6BF752A408D889E
:100E700006EA05152A434FF6FF352B404FF2FF7562
:100E80002B408D8906EA85052B43CD8906EA850529
:100E90002B4383800483CD880587028470BD0000C6
:100EA000002C01400034014070B5002400220023D2
:100EB000058C4FF6FF6635400584028C8388848B51
:100EC0004FF68F752C404FF6FC752C400D882C4347
:100ED0004FF6FF552A400D894FF6FF7606EA0525A5
:100EE0002A434D8806EA05252A43154DA84202D01B
:100EF000144DA8421DD14FF2FF752A404D894FF67F
:100F0000FF7606EA05252A434FF6FF352A408D88ED
:100F100006EA05252A434EF6FF752B404DF6FF7570
:100F20002B408D8906EA05152B43CD8906EA051568
:100F30002B4383808483CD888587028470BD000025
:100F4000002C01400034014070B500220023002431
:100F5000058C4EF6FF7635400584038C8488828BA1
:100F600048F6FF752A404FF6FF452A400D884FF698
:100F7000FF7606EA05252A434DF6FF752B400D89BD
:100F800006EA05352B434D8806EA05352B430B4D04
:100F9000A84202D00A4DA84208D14BF6FF752C405A
:100FA0008D894FF6FF7606EA85152C43848082836F
:100FB000CD88A0F84050038470BD0000002C014093
:100FC000003401400021018041808180C180018185
:100FD00041818181C1817047018770478187704756
:100FE000A0F8401070470000002202881D4B984274
:100FF0000ED01D4B98420BD0B0F1804F08D01B4B48
:10100000984205D01A4B984202D01A4B984204D10C
:101010004FF68F731A404B881A43174B984207D0EC
:10102000164B984204D04FF6FF431A40CB881A4320
:1010300002808B8883850B8803850A4B98420BD0EE
:10104000094B984208D00E4B984205D00D4B984260
:1010500002D00D4B984201D10B7A03860123838283
:1010600070470000002C01400034014000040040A3
:1010700000080040000C0040001000400014004038
:1010800000400140004401400048014010B52021CB
:10109000084800F030F801280BD1064800F0CAF8E3
:1010A000054908700120054908702021014800F019
:1010B00007F810BD0044004020000020210000205F
:1010C00010B50022002340F66A14A14200D100BFEF
:1010D0000A1201249440A3B2DC43048010BD21B164
:1010E000828942F40052828104E082894DF6FF73C6
:1010F0001A408281704702460020B1F5007F00D17E
:1011000000BF13880B400BB1012000E000207047A6
:10111000F0B50346002400260025002040F66A179B
:10112000B94200D100BF1846C1F3421401F01F06B6
:10113000012707FA06F5012C01D10C3004E0022C3E
:1011400001D1103000E014301AB107682F43076056
:1011500002E00768AF430760F0BD00002DE9F047EB
:1011600086B005460E460024A24600BFA1460027D1
:10117000B08900B100BF2F462C8A4CF6FF700440A6
:10118000F08804432C82AC894EF6F3100440B088FA
:1011900031890843718908430443AC81AC8A4FF616
:1011A000FF400440B0890443AC8201A8FFF7BAFCB9
:1011B0001F48874202D1DDF810A001E0DDF80CA045
:1011C000A88900F4004040B10AEBCA0000EB0A1005
:1011D00031684900B0FBF1F807E00AEBCA0000EB08
:1011E0000A1031688900B0FBF1F86420B8FBF0F018
:1011F00004012009642101FB1089A88900F4004042
:1012000040B1322000EBC900B0FBF1F000F0070064
:10121000044308E0322000EB09106421B0FBF1F038
:1012200000F00F0004432C8106B0BDE8F0870000F9
:101230000038014001468888C0F30800704700BFAD
:10124000FEE7FFF717FA01E0FEF7F8FFFCE7000002
:1012500090EA010F48BF81F0004100F11082421A6C
:101260003CBF801A89184FEAD0524FF07F4C1CEADD
:10127000410FA2EBD15318BF9CEA026F00F03B80F4
:101280004FF0004C4CEA00204CEA012121FA03FC0B
:1012900010EB0C0C1ED202F1FF325FEA1C2040EB77
:1012A000C25038BF70471CF07F0F4FEA400C18BF88
:1012B000BCF17F4F38BF7047C3F12003994008BF8E
:1012C00020F00100BCF17F4F38BF7047A0F1C04053
:1012D00000F0C9B94FEA3C00000A40EBC25028BFF9
:1012E0001CF0FF0F4FEA400CE6D018BFBCF17F4F57
:1012F00038BF7047EAE79CEA026F05D010EA5C0F3E
:1013000008BF00F00040704710B500F066F900BF5C
:1013100064FBBE3E4FF47F0C1CEAD0121EBF1CEAD9
:10132000D11392EA0C0F93EA0C0F00F0858090EA3B
:10133000010F48BF42F4807240F4000C41F40000F9
:101340002CF07F4120F07F4000B58142A2EB0302E8
:101350000FF2081CACEB504EC0F100009EF800E00C
:101360004FEA4E0E00FB0EFC38BF49004FEA2C1C22
:1013700002F5FA020CFB0EF34FEACE1E4FEA112CD7
:101380004FEAC1210EEB635E42EB22420EFB0CFCE6
:101390004FEA1C5300FB03114FEA112C4FEA0131B5
:1013A0000EFB0CFC4FEADC4C00FB0C11C14228BFC9
:1013B00009184CEB03335DF804EB10EB410143EBF0
:1013C000C250B2F57C0F38BF704729D512F0F00F2C
:1013D0001CBF00F1C04000F00040704700818283D4
:1013E0008485868788898B8C8D8E8F919293959634
:1013F00097999A9C9D9FA0A2A3A5A7A8AAACAEB0BE
:10140000B2B3B5B7B9BCBEC0C2C5C7C9CCCED1D4C2
:10141000D7D9DCDFE2E6E9ECF0F3F7FAFE000000F2
:101420004FEA400C0CF1807CBCF17E4F28BF704726
:10143000B0F1C04000F017B990EA010F0CEAD113E7
:1014400048BF42F48072624538BF634507D213F447
:101450007F0F16D080EA010000F00040704710B501
:1014600000F0BBF8097EFC3E00F005B880EA010000
:1014700000F00040704780EA010000F0004000F0FA
:10148000F2B812F47F0F04BF0248704780EA0100EF
:1014900000F0E9B80000C07FC10DD1F19E0206DB6B
:1014A0004FEA002343F0004323FA02F07047004262
:1014B00007D54FEA4001B1F1FE4F02D24FF00000D4
:1014C000704710B500F089F84992248000207047D9
:1014D0006FEA2000704700004FF47F0C1CEAD01226
:1014E0001EBF1CEAD11392EA0C0F93EA0C0F00F016
:1014F000478090EA010F48BF42F480724FF0004CE1
:101500004CEA00204CEA012102EB0302A0FB01138C
:10151000A2F50002002918BF43F001035B0028BFB9
:101520004FEA330342EB22425FEA132C4CEBC250EA
:101530002EBFBCEB436FB2F57C0F70474FEA036CD4
:10154000BCF1004F08BF20F00100B2F57C0F38BF9E
:1015500070470BD582F0FF0212F5803FC8BF70477D
:1015600000F1C040D8BF00F00040704700F5000C0B
:101570005FEA4C0C48BF7047B0F1C04000F073B850
:1015800090EA010F0CEAD11348BF42F48072624521
:1015900038BF634504D280EA010000F00040704784
:1015A00010B500F01AF800BF8900013E00F007B83E
:1015B00000F009B85FEA410C5FEA1C6C08D080EAD1
:1015C000010000F050B85FEA400C5FEA1C6CF6D1F5
:1015D0004FF00040A0F5800070470EF1020E2EF093
:1015E000030E5EF8044B244204D44FEA4102B2F1E8
:1015F0007F4F11D84FEA4003B3F17F4F0CD80ED183
:101600004FEAD07CB2F17F4F0CEB4C0C0CF1020C8A
:1016100008BF4CEBD17C04E04FF0080C01E04FEA2E
:10162000D17C0CEB4C0324FA03F404F00704B4F16E
:10163000040C06D20EEB840CBDE810404CF0010CFB
:101640006047DFE80CF0070802024FF00040A0F509
:10165000800010BD0846420018BFD2F1807288BFDA
:1016600000F0004010BDFF2141EAD050C005704796
:1016700090EA010F48BF81F000413FF5F0AD421AFA
:1016800004D882F00042A0EB020011444FEAD0528D
:101690004FF07F4C1CEA410FA2EBD15318BF9CEADC
:1016A000026F4AD04FF0004C4CEA00204CEA012176
:1016B00021FA03FCB0EB0C0C0FD412F0FE0F36D065
:1016C0005FEA4C001DD5001240EBC25038BF704796
:1016D0001CF03F0F18BF70470BE0A2F101025FEA58
:1016E0001C2040EBC25038BF70471CF07F0F18BF62
:1016F0007047C3F12003994014BF401E20F0010041
:10170000704780084FEA122308BF7047B0FA80FC88
:10171000A2EB0C02CCF1280C60FA0CF093EA122F29
:1017200004BF00EBC25070474FEAC3707047130A02
:101730005FEADC1008BF7047F6E79CEA026F04D04E
:1017400010EA5C0F08BF0020704710B5FFF745FF97
:1017500040DFF63E81F000407047000000000000CE
:1017600000000000000000000000000000F8000081
:101770000000000000333000000000100C06100CC8
:101780000600000000000000000040C07840C07863
:101790004000043F04043F040400007088FC08304B
:1017A0000000001820FF211E0000F008F000E018E3
:1017B000000000211C031E211E0000F0088870009C
:1017C00000001E2123241927211010160E000000EE
:1017D00000000000000000000000000000E018040D
:1017E0000200000000071820400000020418E0007A
:1017F00000000040201807000000404080F08040BA
:1018000040000202010F01020200000000F000008F
:1018100000000101011F01010100000000000000A3
:10182000000080B070000000000000000000000018
:1018300000000001010101010101000000000000A1
:101840000000003030000000000000000000806058
:101850001804006018060100000000E010080810DD
:10186000E000000F102020100F00001010F8000002
:1018700000000020203F2020000000700808088899
:101880007000003028242221300000300888884869
:1018900030000018202020110E000000C02010F899
:1018A000000000070424243F240000F8088888086A
:1018B00008000019212020110E0000E0108888186F
:1018C0000000000F112020110E0000380808C83851
:1018D00008000000003F0000000000708808088831
:1018E0007000001C222121221C0000E010080810BA
:1018F000E0000000312222110F00000000C0C000F3
:1019000000000000003030000000000000800000F7
:1019100000000000806000000000000080402010F7
:1019200008000001020408102000404040404040F0
:101930004000040404040404040000081020408053
:101940000000002010080402010000704808080888
:10195000F0000000003036010000C030C828E81058
:10196000E0000718272423140B000000C038E00013
:101970000000203C23020227382008F8888888705D
:101980000000203F202020110E00C0300808080869
:101990003800071820202010080008F80808081050
:1019A000E000203F202020100F0008F88888E80879
:1019B0001000203F20202320180008F88888E8081D
:1019C0001000203F200003000000C0300808083845
:1019D000000007182020221E020008F80800000856
:1019E000F808203F210101213F20000808F80808DD
:1019F00000000020203F2020000000000808F80818
:101A00000800C08080807F00000008F888C0281887
:101A10000800203F20012638200008F808000000B8
:101A20000000203F20202020300008F8F800F8F8BF
:101A30000800203F003F003F200008F830C00008A9
:101A4000F808203F200007183F00E01008080810A1
:101A5000E0000F10202020100F0008F808080808E8
:101A6000F000203F210101010000E01008080810EB
:101A7000E0000F18242438504F0008F88888888820
:101A80007000203F2000030C3020007088080808F8
:101A900038000038202121221C00180808F8080806
:101AA00018000000203F2000000008F8080000088F
:101AB000F808001F202020201F000878880000C898
:101AC0003808000007380E010000F80800F8000888
:101AD000F800033C0700073C030008186880806892
:101AE000180820302C03032C30200838C800C838D0
:101AF00008000000203F2000000010080808C83837
:101B000008002038262120201800000000FE0202D4
:101B100002000000007F40404000000C30C0000088
:101B20000000000000010638C00000020202FE00B2
:101B30000000004040407F0000000000040202025C
:101B40000400000000000000000000000000000091
:101B5000000080808080808080800002020400007D
:101B60000000000000000000000000008080808075
:101B700000000019242222223F2008F80080800063
:101B80000000003F112020110E0000000080808026
:101B90000000000E1120202011000000008080882D
:101BA000F800000E112020103F200000808080806F
:101BB0000000001F222222221300008080F088886B
:101BC00088180020203F20200000000080808080B6
:101BD0008000006B94949493600008F800808080EB
:101BE0000000203F210000203F2000809898000046
:101BF00000000020203F2020000000000080989876
:101C0000000000C08080807F000008F80000808015
:101C10008000203F24022D302000000808F800003A
:101C200000000020203F20200000808080808080F5
:101C30008000203F20003F20003F80800080808087
:101C40000000203F210000203F2000008080808095
:101C50000000001F202020201F00808000808000C6
:101C6000000080FFA12020110E0000000080808075
:101C70008000000E112020A0FF80808080008080E6
:101C8000800020203F212000010000008080808013
:101C900080000033242424241900008080E0808008
:101CA00000000000001F2020000080800000008055
:101CB0008000001F202020103F20808080000080B6
:101CC000808000010E3008060100808000800080C6
:101CD00080800F300C030C300F000080800080806B
:101CE00080000020312E0E31200080808000008096
:101CF000808080818E701806010000808080808046
:101D000080000021302C2221300000000000807C67
:101D1000020200000000003F404000000000FF0001
:101D2000000000000000FF0000000002027C8000B4
:101D300000000040403F00000000000601010202D8
:101D40000404000000000000000000006C1D0008FA
:101D5000000000202400000028010008901D000859
:101D60002400002064060000440100080000000078
:101D7000010203040102030406070809020406081D
:101D80000000000000000000000000000000000053
:04000005080000ED02
:00000001FF
